:400000000040002011000000B1070000B107000010B500F0EDFBC04610B512222E4B1A60302001F043F82D4A2D4B1A60BC2292012C4B1A602C4B2D4919602D490A602D4A4C
:400040001A60FE2212022C490A602C4919602C490A602C4A1A60882189012B4A11602B4A1A60802189002A4A11602A4A1A60E8214901294A1160294A1A6082221206284BDE
:400080001A608022D202274B1A604523264A1360264A1360264A1360264A13604622264B1A60063A254B1A600132254B1A600332244B1A60023A244B1A600132234B1A6078
:4000C0002349072000F028FF072000F00FFF0022204B1A6010BDC046300010400600008004010B40140301400000014045FF00801803014046FF00800003014040FF008080
:400100000403014041FF00801003014044FF00800803014042FF00800C03014043FF008008010B4000010B403801014034010140300101402C010140280101401C01014049
:4001400018010140140101400C01014008010140011200000C020B4010B572B601224A4B1A7000240FE049486200131959000B00411889881A5AC31858880004104300F026
:40018000C3FA0134E4B2012CEDD9404801000C31443000F09FFA3E4A3E4B1A60802212013D4B1A60802212033C4B1A603C493D4B1960EE213C4B196055393C4B1960992328
:4001C0001B043B490B603B483B4908603B490A603B4A13603B4A13603B4A3C4B1A6001223B4B1A603B490B783B32934314221343DBB20B70384A117816230B43DBB213707B
:400200002F23364A13603649364A1160364A13602522364B1A60364A364B1A608022364B1A605F3A354B1A60B032354B1A60354A354B1A600822354B1A60B932344B1A60CC
:40024000B03A344B1A60344A344B1A600223344A13601721334A11600D31334A1160334A10391160102232490A6032490A60324A13603121314A1160314A1360FFF7CCFEAE
:4002800000F058FA10BDC0461C700F40583B00000000FFFF00000240000102400002024000EE080000030240000402400007024000500F400400990010500F4014500F408C
:4002C00020500F4030500F4010AA0A00600120402000104001700F4000700F40000004400010270008000440180004400001044088631800080104400C0104401801044096
:400300000002044008600000080204400C0204401802044000030440826D0000080304400C03044000040440080404401804044000060440180604400007044008070440F7
:400340001807044010B5064C2378002B07D1054B002B02D0044800E000BF0123237010BD480100200000000064390000084B10B5002B03D00749084800E000BF0748036894
:40038000002B00D110BD064B002BFBD09847F9E7000000004C01002064390000C00000200000000000B58FB062B600F07FFA00F015FB144800F0F0FA7321134800F02CF8D6
:4003C000002807D1114800F0E7FAFA20800000F0DBFDFAE70E4800F0DFFA0A210A4800F0B3F802F05FFD02000B000A4901A802F095FE01A800F0D0FAFA20800000F0C4FDCF
:40040000EBE7C04668390000A401002088390000A8390000C839000010B58EB00C00017000F0DCFC14220021200000F0E7FBC4B2002C0FD0FF2202400A4901A802F06EFE0C
:4004400001A800F0A9FA142000F03AFC601E8441E0B205E0142000F033FC60426041C0B20EB010BDEC39000030B58FB00400002237236B441A7000F0B1FC2078142200210B
:4004800000F0BCFBC3B2002B0CD0FF2202401E4901A802F043FE01A800F07EFA142000F00FFC2EE01421012000F036FC20781422012100F0B3FCC3B2002B0CD0FF2202403F
:4004C000124901A802F02AFE01A800F065FA142000F0F6FB15E037256D4414222900012000F03EFC142000F0EBFB2878002802D1074B636005E001F0DBFB064901F0BEFAC7
:4005000060600FB030BDC046203A0000543A0000BF58323E00007A44F8B507000E000025002407E0A300D959281C01F031F9051C0134E4B2B442F5D3300001F0B9FB011C5A
:40054000281C01F09BFAF8BDF0B54F4680B490B007008946032200210FA802F0D6FD4B460A2B01D90A2399463800FFF77DFF4B465C1EE4B207E0621E631C9B00DB590234D4
:40058000A400E351D4B2002CF5D100F027FC38781422002100F032FB051E0ED0142000F08FFB2A00434902A802F0B8FD02A800F0F3F9280001F07CFB77E01421042000F048
:4005C000ABFB3D4800F0E8F938781422012100F025FC051E22D0142000F072FB374800F0DBF9280001F064FB5FE025000FAB1B5D002B02D1324800F0CFF90120A0428041FB
:4006000040420FAE7119142200F0AAFB735D002B02D12C4800F0C0F90134E4B2022CE4D9142000F04DFB7E680FAC207801F040FB051C607801F03CFB02F034FC0022224BE2
:4006400001F0A0FE00900191281C02F02BFC009A019B01F06BFB00900191A07801F028FB02F020FC0022194B01F08CFE02000B000098019901F05AFB04000D00301C02F0AE
:4006800011FC22002B0002F093F902F05FFCB8600F4B1B78994502D901330D4A1370380008300B4B1978FFF737FF10B004BC9146F0BDC046883A0000BC3A0000D43A0000F6
:4006C000083B0000303B0000000024400000594064010020F0B50025002711E0BB00C658F3B2FF22964308E06A008A181478A419527822700135013BDBB2002BF4D10137B0
:40070000062FEBD9F0BDC04610B50A00002102F0FCFC10BD064B1B68002803D080221206134301E05B005B08014A13607047C04680033A4010B580231B060F4A13600322F6
:400740000E490A600E480F4908600F480F4908600C200F4908600F490A600F4A13600F4A0F4B1A600F4A104B1A6000220F4B1A600B38FFF7CFFF10BD0000304030003040DC
:4007800004400400800030400240040088003040C00030403000314000003A404180430000033A40C100430040033A40000E3F4010B502F075FC03680C2B00D1FEE7FEE744
:4007C00010B50300084A1068C318084A9A1A802A02DC054A136005E002F062FC0C2303600120404210BDC046C40000200002002070B50F4E0F4D13E029686B68AC6800228E
:4008000002E001C901C30432A242FAD1E868002202E0002102C304328242FAD11035013E002EE9D102F042FCFFF7BCFDFEE7C04601000000443D000010B50E4A13680121F2
:400840008B43136000230AE0032B03D89A000A49505800E009489900094A885001332F2BF2D9FFF779FC034A116801230B43136010BDC0460000104000000000B10700004D
:400880000000002010B500F075F810BD10B500F01DF810BD10B5044A1368802109060B431360FFF7EFFF10BD0000274010B5064B1B78002B04D1FFF7E9FF0122024B1A70FA
:4008C000FFF7E8FF10BDC04666010020154A164B1A600023154A13601549164A1160164A16490A6007201649086016490B6006381549086015490A60154A13600421154A60
:400900001160154A1360154A1360154A1360154A1360154A1360154A13601268144B1A807047C0460B000002000027404000274001000A0048002740070000800003274064
:40094000040327401003274044002740000227400402274050002740880E2740C80E2740480F2740080F2740C80F2740880F27406801002005490B68F0229343603A134383
:400980000B60034B1A88034B1A6070470007024068010020880F274070B50500002402E000F092FC0134285D0028F9D170BDC04610B5082000F09AFA10BDC04610B500F007
:4009C0001DF810BD10B5044A1368802109060B431360FFF7EDFF10BD0000244010B5064B1B78002B04D1FFF7E9FF0122024B1A70FFF7E8FF10BDC0466C01002010B500245C
:400A0000184B1C60184A194B1A60194B194A1360194A1460194A1460194A1360194B1C60082000F06DFA0321082000F087FA1649082000F071FA154B1C60154B1C60154BC3
:400A40001C60154B1C60154B1C60154B1C601022144B1A70144B1C80144B1C60144B1C6010BDC04600002440770800806000244007010080000324400403244010032440CF
:400A80000002244004022440E5120000C80E2440880E2440480F2440080F2440C80F2440880F2440D4010020E4010020F4010020DC01002010B50E4A13685B005B081360FA
:400AC00000230C490B600C490B600C4804680C49214001600B490B600B490B6010210B4B19701368802109060B43136010BDC04600002440680024406C002440600024406B
:400B0000FF5CFFFF880F2440C80F2440D401002010B504000368002B09D0012000F006FB2368013B2360002B03D0002003E0002001E08020000610BD10B5002839DBC02344
:400B4000034208D00022284B1A601032274B1A70002310243DE0C3070FD5244B1B781B072BD5234B1B685B0001D5002300E0012310211E4A117001242BE0C30520D48307EC
:400B800022D4C30605D51022184B1A70002300241FE0164B1B781B0719D5144B1B78DB0701D5252200E02422104B1A70002300240FE00123802424060BE00123012408E0F3
:400BC00001238024640004E00023022401E000230024012B02D1FFF76DFF02E0054A064B1A60200010BDC04668002440D40100206000244017030000000F244070B582B0BB
:400C000004000D001600244B1B78102B40D1082000F076F9214B1B68DB0734D4FA239B005E43019600221E4B1A601E4A1E4B1A601E4A1F4B1A606400FF231C40002D03D170
:400C40002422154B1A7004E02522134B1A7001231C43184B1C600222174B1A60124B1C680823FF3320001840144B1B68C02423401843040001A8FFF74BFF2043EED0FFF791
:400C80005BFF040000E00824082000F02FF900E00424200002B070BDD401002064002440080F244017030000000F2440ED0F0000C00F24404002244068002440400F24406A
:400CC00010B582B0104B1B789B061AD5FA239B00584301900D4B1B689B0601D5182200E010220B4B1A600B4B18681223FF331840040001A8FFF70CFF2043F4D0FFF71CFFB2
:400D000000E0042002B010BDD40100206400244068002440000F244010B582B00D4B1B789B0613D5FA239B00594301910A4B18600A4B18680823FF331840040001A8FFF7E9
:400D4000E7FE2043F4D0FFF7F7FE00E0042002B010BDC046D401002040022440000F2440F0B583B004000D00164B1B789B0626D5FA239B005A430192134B18680223FF334F
:400D800018400700114B1B6804261E4001A8FFF7BFFE384333000343EED0002E05D00C4B1B682B700B4A094B1A60FFF7C5FE002806D1002C04D10422074B1A6000E0042015
:400DC00003B0F0BDD4010020000F2440C00F244040032440ED0F00006800244010B5082000F08EF8044B1C88A4B200221A80082000F07CF8200010BDE4010020054B1B68D0
:400E00002022134000D0082301221343024A13607047C046640024406800244010B582B0154B1B789B0623D5FA239B005A4301924000FF240440002903D124220E4B1A7061
:400E400004E025220C4B1A7001231C43FFF7D6FF0A4B1C600A4B18680823FF331840040001A8FFF755FE2043F4D0FFF765FE00E0042002B010BDC046D40100204002244023
:400E8000000F244000230AE00D4A12683F210A400C49C95C8A4201D1033303E001332D2BF2D9032308490868084A02400A60084A944663441B78DBB2064A13607047C04657
:400EC0002CFF0B40B83B000000002240FFFFFFBFCDF1FF0F28FF0B40034B18688023DB05184000D001207047000022401F2318401E3B8340014A13607047C04600E100E088
:400F00001F2318401E3B8340014A13607047C04680E100E001BE704770B504000D001F2802D90020FFF7F6FF1034A40080239B059C4664442068256070BDC04670B5040048
:400F40000E00032902D90020FFF7E4FF1F2C02D90020FFF7DFFF03252540ED00063500F0ACF9A408A400074B9C46644421680323AB4099430B003100A9401943216000F06B
:400F8000A0F970BD00E400E010B5040006E0084B586800F089F9074B9C46644480231B029C42F4D8024B9868604300F07DF910BDC80000200080FFFF70B582B000F0CAF89B
:400FC00000285DD000F079F9050000230AE02D4A12683F210A402C49C95C8A4201D1033303E001332D2BF2D903230021274A1160274A1268D20606D1254802681F318A432E
:4010000013390A430260234C2168234A1140234A5A438023DB019C466244D20B013A5205520D0B001343A0225203134323601C4B1B680193302000F0F5FA1A4A13688021A2
:40104000C9050B4313602668174B1E40002407E00120FFF799FF1034A30533430D4A1360EE2CF5D90120FFF78FFFFF239B051E43084B1E60019A0A4B1A60280000F021F990
:4010800002B070BD2CFF0B40B83B000028FF0B4034FF0B400800224000F800C040420F003000104000002240FFFF3FC030B587B0040000F002F90500FFF70EFF002803D058
:4010C000FFF7E0FE012100E00021104B1B6800930F4B1B680193033C0E4B1B5D02930E4B1B68039304AA0D4B04936B4605930C4B1A600C480C4A10601B68012901D1FFF7BA
:401100005BFF280000F0DDF807B030BD08010B4000010B40B83B000030001040B6EA000008001040170000800400104010B5034B1B7B584300F0B8F810BDC046C80000202F
:40114000034B1868C0231B02184000D00120704700010B40034B1B68002B01DA012000E0002070470000224010B500F0A6F8044A1368C02109020B43136000F0A2F810BD24
:4011800000010B4010B500F098F808490A68084B1A408024E40122430A600A6813408022120213430B6000F08CF810BD00010B40FF3FFFFF70B5050000F07FF80400FFF746
:4011C000BFFF002803D0FFF7DDFF012100E0002108482840084A1568084B2B40184310601368012901D1FFF7BFFF200000F069F870BDC0460404040010020B40FBFBFBFF09
:4012000010B5244B1B685B0715D5234B5B685B070ED5224B596A042001401F4C62688A4362605A6A82435A629B69002B00D098470420FFF7BFFF174B1B685B0518D5164B4E
:401240005B685B0510D5154B596A8022D2001140114842688A434260596A114A0A405A62DB69002B00D098478020C000FFF7A2FF084B1B685B030CD5074B5B685B0304D572
:40128000064B1B6A002B00D098478020C002FFF791FF10BD10020B40DC00002074010020FFFBFFFF000000000230800803D00138FDD1C046C046C0467047EFF3108072B6EC
:4012C000704780F310887047044B1B681F221340082BF9D0024B18607047C046080227404002274010B5AF4B1B68002B00D09847AD4B1B68DB0702D50022AC4B1A60AC4B9D
:401300001B789B0628D5AB4B1B68DB0507D5AA4A1188C0239B000B431380012300E00023A44A1268D20706D5A34A118890239B000B4313800123002B0FD09D4A1278D207EB
:4013400001D5012200E002229B49088802430A800021974A117000E00023954A1278920600D417E1934A1268D20611D51022934B1A608F4B1B78DB0701D5012300E00223ED
:401380008D4A11880B4313801022894B1A7007E1874A1278120720D5864A126892070AD50222864B1A60844A118888239B000B431380012311E07E4A1278D20703D52521DE
:4013C0007B4A117009E02421794A11707C4A1268002A02D014397B4A1160754A1278520700D4AEE0724A1278D20749D5764A1268120727D5754A1268754909681F240C40EF
:40140000744909686418141B082C09D8002C16D1714A1168714B0B401360012308340EE008240CE06B4A11686D48006841186D480068C0B20870116801311160013C002C67
:40144000F0D119E0604A1268520715D5614A116863480068411863480068C0B208701168013111601168594A1268914203D204215D4A116000E001235C495D4A116060E026
:401480004C4A1268920726D502224C4B1A6059490B681D321A40096880231B020B4000D001239B18544A1168CB1A13601268534B1A60414A118884239B000B431380504B8F
:4014C0001A68802149020A431A6019684D4A0A401A60012335E04C4A1268D2061ED427E0454A1168364A126891421DD2344A1268013A414909688A4204D1402243490A60D6
:4015000030490A603C4A11684148006841180978C9B240480160116801311160354A12681F210A40082ADBD11021384A116008E0354A1268520604D52F4B1A682F4B1A60F7
:401540000123002B2CD0244A1168244B0B4013600023314A13601B4A1360304B1B789B070ED5134B1B78DB0701D5092300E00A23114A11880B43138060220D4B1A700FE086
:40158000274B1B689B0601D5182200E01022164B1A6005E0064B1B78DB0601D4FFF78AFA10BDC046700100208C0E2440880E2440D40100200C0F2440E4010020000F244057
:4015C000E0010020880F2440CC0F2440F001002008032440F401002060002440FFFEFFFFE80100204003244068002440ED0F0000C00F244008022440D8010020DC0100204D
:4016000004022440FFFFFEFF8C0F2440800F2440F801002040022440C80F2440EC0100206400244070B50400FFF747FE0500102C05D8104A136803218B43136016E0202C86
:4016400007D80C490B6803229343023A13430B600CE0302C07D807490B6803229343013A13430B6002E00020FFF754FC2800FFF728FE70BD30001040002243088B4274D330
:4016800003098B425FD3030A8B4244D3030B8B4228D3030C8B420DD3FF22090212BA030C8B4202D31212090265D0030B8B4219D300E0090AC30B8B4201D3CB03C01A52412B
:4016C000830B8B4201D38B03C01A5241430B8B4201D34B03C01A5241030B8B4201D30B03C01A5241C30A8B4201D3CB02C01A5241830A8B4201D38B02C01A5241430A8B4202
:4017000001D34B02C01A5241030A8B4201D30B02C01A5241CDD2C3098B4201D3CB01C01A524183098B4201D38B01C01A524143098B4201D34B01C01A524103098B4201D335
:401740000B01C01A5241C3088B4201D3CB00C01A524183088B4201D38B00C01A524143088B4201D34B00C01A5241411A00D20146524110467047FFE701B5002000F006F8C6
:4017800002BDC0460029F7D076E770477047C046F8B54A02430244004E00C50F240E28009B09360EC90F92098D4259D0A01B002800DC8DE0002E1AD1002A00D079E05A0759
:4017C00004D00F221A40042A00D004335A0138D50134FF2C00D189E028009B015B0AE4B25B02E4055B0A2343C0071843F8BDFF2CE5D08021C9040A431B2800DD89E0160072
:401800002021C640081A8240511E8A4132439B1A5A0114D59B019E09300001F023FC05388640844265DC041B330020200134E340041BA640721E964100243343BFE75A0751
:40184000BFD1DF082800FF2C2FD1002F00D187E08022D20313003B435B025B0AFF24BFE7A11B002949DD002E29D0FF2CA7D08026F60432431B2900DD8DE017002026CF40C1
:40188000711A8A40511E8A413A439B185A01D6D50134FF2C64D0012276491A405B080B4013438CE7031ECAD100207B025B0AE4B296E701380028AAD0FF2C9DD17FE7002A47
:4018C00000D17CE701390029DFD0FF2CD2D176E7002820D1601CC0B2012853DD80279E1AFF0437402FD0D61A0D0095E72800002376E7614B241A334061E700294DD1611CB5
:40190000CEB2012E2FDDFF292AD09B185B080C0055E701227BE7002C1BD1002B5BD0C04300280CD0FF2E7ED01B2800DD92E01D002024C540201A8340581E83412B43D31A6D
:4019400034000D0064E7002E00D065E700200024ABE7FF2E67D08024E40440422343E3E7FF2400233CE7002C61D1002B7ED0002A00D124E79B185A0100D460E73E4A0C0016
:4019800013401CE7002C1ED1002B2FD1002A66D013000D0013E7012277E7002C1FD1002B5AD0C94300290BD0FF2E50D01B295FDC1F002024CF40611A8B40591E8B413B43CA
:4019C0009B18340062E7002B1CD1002A4AD013000D00FF24F3E6130034000D00EFE6FF2E35D08024E40449422343DFE7002A00D1E5E68027981AFF04074000D152E7D31A41
:401A00000D00DCE6FF24002A00D1D8E68020DB08C003034204D0D208024201D113000D00DB00FF24CBE61300FF240D00C7E6002B0DD0FF24002A00D1C1E68021DB08C903D0
:401A40000B42EDD0D2080A42EAD11300E8E71300FF24B4E6012372E713003400AFE60027002022E780270020FF03F1E61300A6E60123A5E7FFFFFF7DFFFFFFFBF0B556467E
:401A800044465F464D46F0B444024600C70F83B08846650A360EBA463DD0FF2E22D00023EC00802599469B46ED0425437F3E43465C025800DB0F640A000E984636D0FF2844
:401AC00030D080230021E400DB041C437F38301A0190484642460843724E800030587A4013008746002D44D108239946063B9B46DDE70122FF2000241A406402C305640A1D
:401B0000D2071C431443200003B03CBC90469946A246AB46F0BD002D20D104239946033B9B46C4E7002C17D1022102E0002C0AD10121321A01924A4643460A435A48920067
:401B400082587B409746200001F08CFA431F76309C4040420021BAE70321B8E7280001F081FA431F9D4000237630464299469B469DE70C239946093B9B4698E78024002291
:401B8000E403FF20B9E70024C2468B465A465346022AAED0032A7DD0012A31D1012200201A400024A9E70122101A1B2856DD1A4000200024A1E78023DB031D424BD180231F
:401BC000DB032B435C02640A3A00FF2095E76D016001854230D2019A0024013A01921B220127290064006D00002901DBA84201D82D1A3C43013A002AF3D16A1E95412C43F0
:401C000001987F300028CEDD620704D00F222240042A00D00434220103D5244A019814408030FE2800DD64E70122A401640AC0B21A4062E72C00A9E72D1A1A220124CFE7CA
:401C40006B02BCD500248023DB031C436402640A4246FF2051E71C42B3D1F4E721002022C140101A8440621E94410C43620704D00F222240042A00D00434620104D5012297
:401C800001201A40002438E70122A401640A1A40002032E78023DB031C436402640A5246FF202AE7E83B0000283C0000FFFFFFF770B5041E28D001F0D5F99E231B1A962BF1
:401CC0000ADC9622D21A94406202520AD8B25202520AC005104370BD992B18DC9922D21A9440114A2240610704D00F210C40042C00D00432510103D50B4B1A409F231B1A98
:401D00009201520AD8B2E2E700200022DFE705222500121AB921D5402200C91A8A40541EA2412C001443DCE7FFFFFFFBF8B556465F464D464446F0B40F00FD0FAA460903CA
:401D40007C002E005F00450F490A7F0D2943C5001803BC46400A570F640DDB0F3843D2009A4500D1AAE06646A61B002E00DCFFE06346002B39D10300134300D0D9E06B07BF
:401D800009D00F232B40042B05D02B1DAB42AD416D4249191D000B0200D482E0CA4B01349C4200D1FEE00A005646C84BED081A405007640552020543120B640D0021120316
:401DC0000B0D1B056405120B1A436308C04CF60714401C43640064083443280021003CBC90469946A246AB46F8BDB74B9C42C6D080231B041843382E00DDEBE01F2E00DD0B
:401E00001EE120239B1B9C4603006746BB40984613004746F3403B436746BA40571EBA4113430200F240EB1A9D42B6411D008A1A7642911B0B0231D54A02560A002E00D18F
:401E4000B4E0300001F00EF90300083B1F2B00DDB5E020222900D21AD1409E400A009D4032439C4200DDB1E01C1B631C1F2B00DDD5E0202114002800C91A8C40D8408D4013
:401E80000443DA40681E854111002543002476E74146314300D134E2310045466B0700D06FE756464807ED08C9080543864B9C4235D00A036405120B640D7FE76346E31A88
:401EC0009B46002B00DC8BE06746002F3CD07E4FBC4200D153E780273F0438435B46382B00DCF7E00243501E82410020D2B253194218AB4289411D00494289180B02CDD526
:401F0000714B01349C4200D13DE101206F4A6B080A4028401843D507054351082FE72B000B4300D1CBE180231B030B431A03120B44E7013E002E6DD1AE1AB5429B41091A23
:401F40005B42C91A350075E70700174300D116E701235B429C46E3445B46002B00D0E0E0AA18AA429B4109185B4259181500C5E7002E75D1661C7605760D012E00DCF3E0AF
:401F8000AE1AB0464545BF410E1A7F42F61B370200D48FE0551BAA42B641411A76428E1B9A464BE756460022002507E7280001F059F820300300083B1F2B00DC49E72A00F1
:401FC0002838824000259C4200DC4DE73F49E41A1140D4E60243501E8241D3B2002222E7002B00D0F3E0631C9C465B055B0D012B00DC9FE0344B9C4500D1C3E0AA180918C0
:40200000AA42804140424118CD075208154349086446B4E62C4B9C4200D0ECE6AFE611001F3CE1400C00202B00D17FE04021CB1A9A4015436A1E95410021254300242DE7C6
:4020400033000700203BDF403B00202E70D04027BE1BB0400243501E824113430022E2E6002C4FD0184CA44500D1ABE08024240476422143382E00DDDFE01F2E00DD43E1D1
:402080002027BC1BA1460C004F46BC40A0462C004746F4403C434F46BD406F1EBD41F1402C43151BAA429241411A5242891A64469A46BFE641464546314300D0BEE600269F
:4020C00000240025F2E6C046FF070000FFFF7FFFFFFF0F801F2B59DC2027FF1ABC46070063469F405B46B9461700DF40B8464F4643461F4363469A40531E9A415B463A43F9
:40210000D840F4E60C002C435CD0F643002E55D1551BAA42A441411A6442091B9A46644688E6964FBC4200D0D8E628E6002280E700208FE70B002B43002C00D0C2E0002B3B
:4021400000D101E10300134300D118E6AB18AB42B6410918764271180A0200D409E1884A1D00114064460AE6002C5BD10E002E4300D08AE00100114300D1C2E001001500E8
:402180009A46FCE56446002100258FE620235B429C46DC4463460700DF405B46BC46202B00D1ACE040235F46DB1B98400243501E8241634613431A00002098E66F4CA44556
:4021C00000D057E70100150064469A46D7E5002C39D10C002C436ED0DB43002B1AD0674CA44568D0382B00DDA4E01F2B00DDAEE020240F00E41AA740B9462F00DF40B84683
:40220000A3464F46444627435C46A5406C1EA541D9403D43AD1895429B4109185B42591864466BE60C002C4315D1010011437BD0010015009A46514CA1E50D43691E8D413B
:402240000021ECB22DE74D4CA44534D0802424045B422143C6E7040014434ED0ED084C072C438025C9082D03294208D0C6082E4205D1D208410711430C009A463100620F5A
:40228000C900E50011433D4C79E50600164300D175E5AE1AB0464545BF410E1A7F42F61B370200D4F4E5551BAA42B641411A7642891B9A4663E50100150064465FE500222B
:4022C00000257BE5002B3BD00300134315D0ED084B072B438025C9082D03294207D0C4082C4204D141070B002100D2081343C9005A0F1143DD00214C41E5204C3FE50020EF
:4023000054E700260025D1E534000F00203CE7403C00202E2BD04027BE1BB1400D43691E8D4100212C43BCE6802100260903134C0025BBE50D43691E8D410021EDB269E762
:40234000010015000D4C1AE50100150017E51C000F00203CE7403C00202B0CD04027FB1A99400D43691E8D410021254352E70021D4E71D0092E50021F3E7C046FF07000099
:40238000FFFF7FFFF0B556464D4644465F46F0B41D000E034C00CB0F87B0070092468146360B640D98466AD06D4B9C4235D08022430F12041343F6001E43C3009946694B57
:4023C00000279C460023644402932B0368001B0BED0F51469B46400D009500D178E0604B98426CD05B46DA004B0F802109040B4313439B465346D9005A4B9C4600236044B0
:402400004246201A6A40924601901F430F2F00D9B0E05548BF00C0598746374300D088E0002399460233082700260293CDE74346B34649460093029B009A9246022B00D045
:40244000BFE1002153460122002689461A40444B002136030C0D2405360B2643434C1B0526401E437600D207760816434846310007B03CBC90469946A246AB46F0BD330043
:4024800003434FD0002E00D1BCE1300000F0EAFD03000B3B1C2B00DDADE11D220100D31A08393A008F408E40DA40B9461643304B00279C46002360444442029385E75346F7
:4024C0005A4613432CD1002300219B46023397E70B4320D05B46002B00D19EE1584600F0C1FD03000B3B1C2B00DD8FE102005946083A91408B461D21CB1A5146D9400B002B
:4025000059460B4351469B469140194B9C4660444042002374E7002300219B4601336FE703236DE70023994601330427002602934BE703230C27029347E70122D51A382D71
:4025400000DCB0E153461A4000210023002689467EE700238026994600223603004B77E7FF07000001FCFFFF683C0000FFFF0F80F30300005E4500D972E100D16DE1019BFF
:402580004D46013B01930023340002935B461E020B0E1E430B020393330C994633041B0C494620000093FFF767F8009B370043430600494620009846FFF7E4F82C0C0904D9
:4025C0000C43A04509D9E419731EA74200D95CE1A04500D859E1023EE4194346E41A49462000FFF749F80300009A80465343494620009B46FFF7C6F82A040904120C0A43B4
:4026000093450DD94346D219013B974200D93AE1934500D837E102235B429C46D219E0445B46D21A4346360433439B460399180C0B0C1D00059309045B46090C0C001B04C3
:402640001B0C4443049159436B4368431B190D0CEB189C4203D980246402A44660441C0C09041B04090C20185D18824200D2DEE000D1D7E0161A029B9C465D1BAC459B419A
:402680005B42F61AB74200D106E149463000FEF7F3FF009B04004343494630009846FFF771F82E0C09040E43B04509D9F619631EB74200D9F3E0B04500D8F0E0023CF61967
:4026C0004346F31A494618000293FEF7D5FF009B06004343494602989846FFF753F82D0409042D0C0D43A84509D9ED19731EAF4200D9D6E0A84500D8D3E0023EED1924043D
:40270000210043463143049E059A3000ED1A0B040C0C1B0C58436643534354439A19030C9B189E4203D980225202944664441A0C00041B04000C14191B18A54250D34DD0BF
:4027400001231943964A019B94466344002B00DCF3E64A0709D00F220A40042A05D00A1D8A42894149428B4411005A46D20108D55A468C4B1A4093468022D2009446019B48
:402780006344894A934200DD5BE65A46C908500708435602514601225B058146360B5B0D0A4055E680231B031E4211D05A461A420ED15E461E433603360B2A0089467B4B17
:4027C00046E6032B00D1E1E0012BBBD11A40BBE61E433603360B4246744B39E6002BB1D07D194A1EAF4252D91100A542A8D1039A9A42A5D1A6E703003E00283B9E400023A1
:40280000994654E600F02EFC203041E603005246283B9A400021934677E6504600F022FC20305EE6029B0026AB4200D323E7039E0299B44661448846B045B6415B4676420C
:40284000F619B218013B0291974213D290424FD800D18EE0161A9B460DE7894500D28EE674084B46F60735005B081D434B46DB0702938BE69742EDD10399029CA142E5D9B4
:402880003E1A9B46F7E69846CAE61E00A5E6AC423ED874D0110053E70121494252E71C000EE71E002BE71F2D3CDC20230A0058465B1B9840EA4099400243481E81415E4660
:4028C0001143EE404B0709D00F230B40042B05D00B00191D99429B415B42F61833023CD55346012200211A40002601238946AFE502235B429C46039CE344A446029B634445
:402900009846A045B6417642F6190293B218B1E603988A1E41008142B6417642F619AD19039161E71F225242D31A5A46DA401300202D29D040225846551BA8400143481EA2
:40294000814107200B4318400026002809D00F2200261A401900042ABBD10B0070077602360BDB0803439946012253461A4000236EE502998D42BBD89B4600267BE603984E
:402980009842C5D3110032E70020D7E780265B4636031E433603360B009A8946034B57E5FF030000FFFFFFFEFE070000FF070000F0B55F4656464D464446F0B40D039946B1
:4029C0004E002B0B87B00700924680469B46760DCC0F002E69D06D4B9E4235D05B468022DD001204430F13432B439B46C3009846674B00279C460023664401934A461503A2
:402A00005000D20F53462D0B400D914600D176E05E4A90426CD080225B0F120413435C4AED0094461D4353460022DB00604449463618701C6140029017430F2F00D9AFE078
:402A40005448BF00C759BF465B461F4300D088E000239B469846023308270193CEE74946022A6AD0032A00D109E2012A00D0BBE111400022002300259046CCB200212D0337
:402A80000A0D12052D0B1543434A1B0515401D436D00E4076D0825434046290007B03CBC90469946A246AB46F0BD034352D05B46002B00D18AE1584600F0D4FA03000B3B13
:402AC0001C2B00DD7BE11D22D31A3A0001005D46DA4008398D4013008F402B439B46B8462E4B00279C46002360444642019385E752462A432CD100250023022297E75246A0
:402B00002A4321D0002D00D154E1280000F0AAFA03000B3B1C2B00DD46E11D21CB1A51460200D9405346083A954093400D431B4A944660444042002279E7012400220C4092
:402B4000124B0025904699E70025002301226EE703226CE700239B4698460133042701934CE703230C27019348E700238025984600242D03054B81E75D464346019A6FE752
:402B80005D4643462100019A6AE7C046FF07000001FCFFFFA83C0000FFFF0F80F30300004246120C91461A0C9446424617044A461B041B0C5A43604690464A46424310003A
:402BC000039262461C003F0C7A437C4342440192220C9246019A5244904506D98246802040028046C24450460390100C049048462404240C1204121905922A0C2D042D0C04
:402C000068432C00824648467C4350438146200C8046574357444744BA4503D9802040028046C144380C3F04B84648442404240C01900498A044404404905846000C814611
:402C400058460404200C8246070048465F434C464343604660436446834650464443380C8446E4186444A34203D980235B029C46E34448463F04230C3F0C2404E419574609
:402C800068436F4384464D46504655434243380C814662444A445B44944503D9802040028446654403983F04834604983F0C8446E344C345804140428246100484460198B6
:402CC000674484466744A344BC46A345A4419946D44464428742BF41D4458041E144A04699459B417F424042C8440743120CBA18A045A4415F423B0064422343D718434646
:402D00007D19DB0D6D021D435B465A02059B1A43531E9A415B46DB0D1A4343465B021343EA0107D501225C0813402343EA07029E13436D08574AB218002A4BDD580709D086
:402D40000F201840042805D0181D98429B415B42ED180300E80104D54F4A15408022D200B2184E48824200DDE7E60124DB08680718436D02530580462D0B5B0D0C407DE69B
:402D8000802259461203114208D0154206D115432D0398462D0B4C46414B6FE65D4615432D032D0B3E4B69E603005546283B9D400023BCE6504600F055F92030A8E60300C0
:402DC000283B9F400023BB46984689E600F04AF9203073E60124A61A382E07DD00220C4000230025904649E6029EA3E71F2E20DC20222C001800921BF04094409340044396
:402E0000581E83411C43F540630709D00F232340042B05D023001C1D9C4292415242AD182B021FD5012400220C4001230025904624E61F202C004042821AD440202E1CD0CE
:402E40004022961BB5402B43581E83410720234318400025002809D00F2200251A401C00042AD8D1230068076D022D0B0124DB08034398460C40002300E60025E3E78022A9
:402E80000124120315432D0398462D0B0C40044BF4E5C046FF030000FFFFFFFEFE070000FF0700004200120E511C4302C9B270B55D0AC40F012915DDE02189008C466D07DE
:402EC0001B0B6244002128000D0D2D052B431C4D52052B40520813435B00E4075B082343190070BD002A15D1002D1FD0280000F0B9F80A281DDC0B232A001B1ADA401300F9
:402F00000200153295400F4A1B03121A52051B0B520DD7E7002D06D080221B0B120313436D07094ACEE7084A0023CBE700220023C8E703000B3B9D402B000025E3E7C04623
:402F4000FFFF0F8089030000FF0700004B0070B55E0D0C03751C640A420F6D052243C90FC4006D0D012D2ADD3B4BF318FE2B1ADC002B42DD8001451EA841D2001043620F79
:402F80000243500704D00F201040042800D004328020C004104021D00133FF2B03D09201520ADBB201E0FF2300225202520ADB0513435B00C9075B080B43180070BD002E44
:402FC00007D01443EFD08020D20080040243FF23D7E722430023002A03D00522D208FF2B03D05202520ADBB2DFE7002A32D08020C00302435202520AD7E71800173014DBB3
:403000008020000402431E20C01A1F280FDC2500124BF3189D406E1EB5419A402B0013432200C2401A430023ABE70023D5E702256D42EB1A1500DD40202809D0084BF31875
:403040009A401443621E9441220000232A4398E70022F6E70022A8E780FCFFFF82FCFFFFA2FCFFFF1C2101231B04984201D3000C10391B0A984201D3000A08391B099842B8
:4030800001D30009043902A2105C40187047C04604030202010101010000000000000000014B18687047C046440100200E4B70B500251E000D4CE41AA410A54204D0AB00A2
:4030C000F35898470135F8E700F02AFE084B00251E00084CE41AA410A54204D0AB00F35898470135F8E770BD2C3D00002C3D00002C3D0000343D0000002310B59A4203D0C8
:40310000CC5CC4540133F9E710BD03008218934202D019700133FAE7704700000EB410B59DB002A9029008610B48822488604861012040421FABC881084804CBA4000068F0
:4031400001938C8100F06EF80023029A13701DB010BC08BC03B01847FFFFFF7F44010020F0B58E6885B007000C00039201939E4243D890238A89DB001A423ED0032509691A
:40318000236801985B1A029363695D43EB0F5D19029B6D1001331B18AB4200D91D00530510D52900380000F037FB061E14D0029A2169FFF7A1FFA289194B13408022134343
:4031C000A38112E02A00380000F086FB061E0CD12169380000F0D4FA0C23402201203B60A38940421343A38117E0029B2661F61826606561019EED1AA560019BB34200D26D
:403200001E0032000399206800F0A5FA0020A3689B1BA36023689E19266005B0F0BDC0467FFBFFFFF0B59FB0029005938B890F0016001B0610D50B69002B0DD1402100F0D4
:40324000EBFA38603861002804D10C23029A01381360D8E040237B61002306AD6B6120336B761033AB7634002378002B03D1A31B049312D003E0252BF9D00134F4E7A31BC4
:40328000320039000298FFF76BFF431C00D1B4E06A69049B944663446B612378002B00D1ABE00122002352426A6002A95432521801342B60EB60AB601370AB65534E2178E2
:4032C0000522300000F03CFA002807D00123801B83402A68013413432B60EFE72B68DA0604D55322202102A8121811701A0704D553222B2102A81218117022782A2A03D02A
:40330000099B00200A210EE0059A111D12680591002A01DB099204E05242EA60022213432B6001340BE02278303A092A04D84B4301349B180120F6E7002800D00993237895
:403340002E2B1ED163782A2B0AD1059B02341A1D1B680592002B01DA01235B42079310E000230A201A0001346B6021783039092904D84243013452180123F6E7002B00D0EB
:403380000792234E21780322300000F0D9F9002806D04023801B83402A68013413432B60217806221B48661C297600F0C9F9002812D0194B002B06D10722059B07339343AC
:4033C0000833059314E005AB00933A00134B2900029800E000BF07E005AB00933A000F4B2900029800F08AF80390039B013304D06B69039A9B186B6135E7BB890B985B0649
:4034000001D5012040421FB0F0BDC046EA3C0000F03C0000F43C00000000000061310000F7B5170001938A680B6900900C00934200DA130022003B6043321278002A01D0AB
:4034400001333B6023689B0602D53B6802333B60062523681D401ED0230043331B785A1E9341226892061CD53020E1184331087021005A1C45310978A218433202331170D3
:403480000FE022000123193201990098089EB047431C0ED00135E3683A689B1A9D42F0DBDAE72200019943320098089DA847431C02D10120404220E006232068E1683A686F
:4034C00003400025042B03D18D1AEB43DB171D40A3682269934201DD9B1AED180027BD420AD0220001231A3201990098089EB047431CDED00137F2E70020FEBDF0B58BB000
:4035000006920A0043320793059004920A7E0C00109B6E2A00D1ABE011D8632A22D009D8002A00D1B5E0582A00D0C5E045310A70814A4FE0642A1DD0692A1BD0BCE0732A90
:4035400000D1AAE009D86F2A29D0702A00D0B3E0202209680A43226037E0752A1FD0782A33D0A9E00E001A684236111D196013683370A4E021681A68080606D4490604D5BF
:40358000111D19600023D55E02E0111D19601568002D3BDA2D23049A6D42137036E021681A68080606D4490604D51568111D1960ADB202E0111D196015685F4B227E03930C
:4035C00008276F2A1DD00A271BE022007821453211705A4A19680392081D226818600D68100602D4500600D5ADB2D30702D520231A4322601027002D03D1202322689A43B6
:4036000022602300002243331A7002E00A274A4B03936368A360002B09DB0422216891432160002D05D1049E002B11D07BE0002D79D0049E28003900FEF7A4F8039B013EB1
:403640005B5C280033703900FEF716F8051EF1D1082F09D12368DB0706D563682269934202DC3023013E3370049B9B1B23612BE009681A68080607D4490605D5111D196080
:403680001368A28A1A8004E0111D1960136862691A600023049E236116E01A68111D1960166800216268300000F04AF8002801D0801B6060636803E02600423632700123E5
:4036C00023610023049A1370079B09AA00932100069B0598FFF7A4FE431C02D10120404227E02369320006990598079DA847431CF4D0236800259B070FD4099BE06898429C
:4037000017DA180015E022000123193206990598079EB047431CE1D00135E368099A9B1A9D42F0DBE9E72600039B42361B7833708EE70BB0F0BDC046FB3C00000C3D0000EA
:40374000C9B28218904204D003788B4202D00130F8E70020704710B5884202D98B18984201D3002305E09B1A013A08D3995C8154FAE7934203D0CC5CC4540133F9E710BD8B
:4037800070B50500002944D00C1F2368002B00DAE418280000F0D8F81E4A13681100002B02D16360146031E0A3420DD92268A018834203D118685B688218226063600C6095
:4037C00024E0A24203D813005A68002AF9D11E689819A0420BD12168711858181960824214D110685268411819605A600EE0A04202D90C232B6009E021686018824203D1FF
:40380000106852684118216062605C60280000F09CF870BDA0010020032370B5CD1C9D43083506000C2D01D20C2501E0002D01DBA94202D90C23336048E0300000F084F89A
:40384000234B1C681A002100002913D00B685B1B0DD40B2B02D90B60CC181EE08C4202D1636813601AE04B6863600C0016E00C004968E9E7174C2368002B03D1300000F0FC
:4038800051F820602900300000F04CF8431C18D00323C41C9C43A0420DD12560300000F054F8200007220B30231D9043C31A0ED05A42E2500BE0211A300000F033F8431CE5
:4038C000EBD10C233000336000F03FF8002070BDA00100209C010020F8B506000C001500002904D11100FFF797FF040018E0002A03D1FFF745FF2C0012E000F027F8854291
:403900000ED929003000FFF787FF071E07D021002A00FFF7F1FB21003000FFF731FF3C002000F8BD002370B5064C050008002360FCF746FF431C03D12368002B00D02B6074
:4039400070BDC046FC010020704770470B1F1A68101F002A04DA891804390B68D01804387047000000000000496E697469616C697A696E67204F787967656E2053656E733C
:403980006F722E2E2E0D0A004932432064657669636520636F6E6E656374696F6E206661696C6564210D0A0049324320636F6E6E656374696F6E2073756363657373667528
:4039C0006C210D0A000000004F787967656E20636F6E63656E74726174696F6E3A20252E3266202525766F6C0D0A00004F787967656E20426567696E3A204932432053658C
:403A00006E64205374617274204572726F7220436F64653A203078253038580D0A0000004F787967656E20466C6173683A204932432053656E642053746172742045727202
:403A40006F7220436F64653A203078253038580D0A0000004F787967656E20466C6173683A204932432053656E642052657374617274204572726F7220436F64653A20302E
:403A800078253038580D0A004F787967656E20446174613A204932432053656E64205374617274204572726F7220436F64653A203078253038580D0A000000006765746427
:403AC00061746120777269746520636F6D706C65746564004F787967656E20446174613A204932434D617374657253656E6452657374617274206E6F7420776F726B696E36
:403B000067210D0A000000004F787967656E20446174613A2072786275662069732030206265666F72652072656164200D0A00004F787967656E20446174613A20727862C5
:403B4000756620697320302061667465722072656164200D0A00000000300F40000400400F40000438223E1158045F011C401D2089208C402E046A04CA80DA4007404340A2
:403B8000C020D01070017410DC0388108C019402A410E002E40102011101000004320F4004330F4004400F4004410F4003420F4006430F4002600F40030405060708090AE3
:403BC0000B0C0E0F101112131415161718191B1C1D1E1F2021222325262728292A2B2E2F3031323334350000CE1B0000F21A0000B01B0000881B0000B01B00007C1B000044
:403C0000B01B0000881B0000F21A0000F21A00007C1B0000881B0000341C0000341C0000341C0000B61B0000F21A0000F21A00009C1B0000861B00009C1B00007C1B000045
:403C40009C1B0000861B0000F21A0000F21A00007C1B0000861B0000341C0000341C0000341C0000401C0000742500004224000048250000382400004825000052250000A4
:403C80004825000038240000422400004224000052250000382400002E2400002E2400002E240000A4270000A02B0000602A0000602A00005E2A0000782B0000782B00002E
:403CC0006A2B00005E2A0000782B00006A2B0000782B00005E2A0000802B0000802B0000802B0000802D00004300232D302B2000686C4C006566674546470030313233346A
:403D00003536373839414243444546003031323334353637383961626364656600000000F8B5C046F8BC08BC9E4670476D03000039080000F8B5C046F8BC08BC9E4670473C
:403D400045030000583D0000C000002088000000B8000000000000000000000000020020010000000000C05D80BB000030000000006CDC02F0000000040404000000000055
:403D800000000000000000000000000000000000000000000000000000000000E83C00000000000000000000000000000000000000000000000000000000000000000000DF
:403DC00000000000000000000000000000000000000000000000000000000000E40000200000000000000000000000000000000000000000000000000000000000000000BF
:403E00000000000000000000000000000000000000000000000000000000000000000000000000000000000000000000000000000000000000000000000000000000000082
:403E40000000000000000000000000000000000000000000000000000000000000000000000000000000000000000000000000000000000000000000000000000000000042
:403E80000000000000000000000000000000000000000000000000000000000000000000000000000000000000000000000000000000000000000000000000000000000002
:403EC00000000000000000000000000000000000000000000000000000000000000000000000000000000000000000000000000000000000000000000000000000000000C2
:020000040001F9
:0200000490303A
:0200000038B70F
:0200000490402A
:4000000000000000000000000000000000000000000000000000000000000000000000000000000000000000000000000000000000000000000000000000000000000000C0
:400040000000000000000000000000000000000000000000000000000000000000000000000000000000000000000000000000000000000000000000000000000000000080
:0200000490501A
:0C0000000002112D11A1000111404A580E
:0200000490600A
:0100000001FE
:00000001FF