:400000000040002011000000950600009506000010B500F05FFBC04610B512222E4B1A60302000F0B5FF2D4A2D4B1A60BC2292012C4B1A602C4B2D4919602D490A602D4A9C
:400040001A60FE2212022C490A602C4919602C490A602C4A1A60882189012B4A11602B4A1A60802189002A4A11602A4A1A60E8214901294A1160294A1A6082221206284BDE
:400080001A608022D202274B1A604523264A1360264A1360264A1360264A13604622264B1A60063A254B1A600132254B1A600332244B1A60023A244B1A600132234B1A6078
:4000C0002349072000F09AFE072000F081FE0022204B1A6010BDC046300010400600008004010B40140301400000014045FF00801803014046FF00800003014040FF00809E
:400100000403014041FF00801003014044FF00800803014042FF00800C03014043FF008008010B4000010B403801014034010140300101402C010140280101401C01014049
:4001400018010140100101400C01014008010140E51000000C020B4010B572B60122494B1A7000240FE048486200131959000B00411889881A5AC31858880004104300F04A
:4001800035FA0134E4B2012CEDD93F4801000C31443000F011FA3D4A3D4B1A60E0223D4B1A603D4A3D4B1A603D4A3E4B1A600E223D4B1A608B323D4B1A6099231B043C4A2C
:4001C00013603C493C4A1160802189043B4A11603B4A13603B4A13603B4A3C4B1A6001213B4B19603B4803783C22934314221343DBB20370384A107816230343DBB21370FE
:400200002F23364A13603648364A1060364A13602322364B1A60364A364B1A602023364A13602120354A10603A30354A10603548354A1060354A13600B22354B1A600632E1
:40024000344B1A60344A354B1A600223344A13604520344A10604138334A10604030334A1060334A13601338324A1060324A1360324B1960324B1960FFF7CEFE00F0CCF968
:4002800010BDC0461C700F40482C00000000FFFF0000024000010240000008080002024000EE080000030240000402400005024000500F400400990010500F4014500F40DF
:4002C00020500F4030500F4010CC0C00E00120402000104001700F4000700F400000044000102700080004401800044000010440601C1800080104400C0104401801044061
:400300000002044040601800080204400C0204401802044000030440826D0000080304400C03044000040440080404401804044000050440080504401805044000060440AC
:400340001806044010B5064C2378002B07D1054B002B02D0044800E000BF0123237010BD4801002000000000C02B0000084B10B5002B03D00749084800E000BF0748036847
:40038000002B00D110BD064B002BFBD09847F9E7000000004C010020C02B0000C00000200000000000B58FB062B600F0F1F900F087FA144800F062FA7021134800F02CF837
:4003C000002807D1114800F059FAFA20800000F04DFDFAE70E4800F051FA0A210A4800F089F801F08DFE02000B000A4901A801F0C3FF01A800F042FAFA20800000F036FD63
:40040000EBE7C046C42B0000A4010020E42B0000042C0000242C000010B50C00017000F04FFC14220021200000F05AFBC4B2002C06D0142000F0B6FB601E8441E0B202E064
:4004400060426041C0B210BD30B583B0040000226B46DA7100F034FC20781422002100F03FFB002803D0142000F09CFB24E01421012000F0C3FB20781422012100F040FCAD
:40048000002803D0142000F08DFB15E06B46DD1D14222900012000F0D5FB142000F082FB2878002802D1054B636005E001F070FB034901F053FA606003B030BDBF58323EB4
:4004C00000007A44F8B507000E000025002407E0A300D959281C01F0CBF8051C0134E4B2B442F5D3300001F053FB011C281C01F035FAF8BDF8B505000E000A2900D90A2634
:400500002800FFF7A1FF741EE4B207E0621E631C9B005B590234A4006351D4B2002CF5D100F0CEFB28781422002100F0D9FA071E06D0142000F036FB380001F029FB37E073
:400540001421042000F05AFB28781422012100F0D7FB071E10D0142000F024FB380001F017FB25E00120A042804140421422002100F068FB0134E4B2022CF3D9142000F0C2
:4005800011FB686801F0BCFD0022002301F03EFB01F00AFEA860074B1B789E4202D90133044A137028000830024B1978FFF78AFFF8BDC04664010020F0B50025002711E0C1
:4005C000BB00C658F3B2FF22964308E06A008A181478A419527822700135013BDBB2002BF4D10137062FEBD9F0BDC04610B50A00002101F0B8FE10BD064B1B68002803D0E4
:4006000080221206134301E05B005B08014A13607047C04680033A4010B580231B060F4A136003220E490A600E480F4908600F480F4908600C200F4908600F490A600F4A24
:4006400013600F4A0F4B1A600F4A104B1A6000220F4B1A600B38FFF7CFFF10BD000030403000304004400400800030400240040088003040C00030403000314000003A4011
:400680000902430000033A400B00430040033A40000E3F4010B501F031FE03680C2B00D1FEE7FEE710B50300084A1068C318084A9A1A802A02DC054A136005E001F01EFE06
:4006C0000C2303600120404210BDC046C40000200002002070B50F4E0F4D13E029686B68AC68002202E001C901C30432A242FAD1E868002202E0002102C304328242FAD12D
:400700001035013E002EE9D101F0FEFDFFF74AFEFEE7C04601000000F42D000010B50E4A136801218B43136000230AE0032B03D89A000A49505800E009489900094A88507B
:4007400001332F2BF2D9FFF707FD034A116801230B43136010BDC0460000104000000000950600000000002010B500F075F810BD10B500F01DF810BD10B5044A13688021E8
:4007800009060B431360FFF7EFFF10BD0000264010B5064B1B78002B04D1FFF7E9FF0122024B1A70FFF7E8FF10BDC04666010020154A164B1A600023154A13601549164AAD
:4007C0001160164A16490A6007201649086016490B6006381549086015490A60154A13600421154A1160154A1360154A1360154A1360154A1360154A1360154A13601268AE
:40080000144B1A807047C0460B000002000026404000264001000A00480026400700008000032640040326401003264044002640000226400402264050002640880E26402A
:40084000C80E2640480F2640080F2640C80F2640880F26406801002005490B68F0229343603A13430B60034B1A88034B1A6070470005024068010020880F264070B50500D5
:40088000002402E000F090FC0134285D0028F9D170BDC04610B5082000F09AFA10BDC04610B500F01DF810BD10B5044A1368802109060B431360FFF7EDFF10BD00002440EA
:4008C00010B5064B1B78002B04D1FFF7E9FF0122024B1A70FFF7E8FF10BDC0466C01002010B50024184B1C60184A194B1A60194B194A1360194A1460194A1460194A136074
:40090000194B1C60082000F06DFA0321082000F087FA1649082000F071FA154B1C60154B1C60154B1C60154B1C60154B1C60154B1C601022144B1A70144B1C80144B1C60A0
:40094000144B1C6010BDC046000024407708008060002440070100800003244004032440100324400002244004022440C5110000C80E2440880E2440480F2440080F2440C1
:40098000C80F2440880F2440D4010020E4010020F4010020DC01002010B50E4A13685B005B08136000230C490B600C490B600C4804680C49214001600B490B600B490B6034
:4009C00010210B4B19701368802109060B43136010BDC04600002440680024406C00244060002440FF5CFFFF880F2440C80F2440D401002010B504000368002B09D0012087
:400A000000F006FB2368013B2360002B03D0002003E0002001E08020000610BD10B5002839DBC023034208D00022284B1A601032274B1A70002310243DE0C3070FD5244B27
:400A40001B781B072BD5234B1B685B0001D5002300E0012310211E4A117001242BE0C30520D4830722D4C30605D51022184B1A70002300241FE0164B1B781B0719D5144B87
:400A80001B78DB0701D5252200E02422104B1A70002300240FE00123802424060BE00123012408E001238024640004E00023022401E000230024012B02D1FFF76DFF02E091
:400AC000054A064B1A60200010BDC04668002440D40100206000244017030000000F244070B582B004000D001600244B1B78102B40D1082000F076F9214B1B68DB0734D4AB
:400B0000FA239B005E43019600221E4B1A601E4A1E4B1A601E4A1F4B1A606400FF231C40002D03D12422154B1A7004E02522134B1A7001231C43184B1C600222174B1A60A1
:400B4000124B1C680823FF3320001840144B1B68C02423401843040001A8FFF74BFF2043EED0FFF75BFF040000E00824082000F02FF900E00424200002B070BDD401002091
:400B800064002440080F244017030000000F2440ED0F0000C00F24404002244068002440400F244010B582B0104B1B789B061AD5FA239B00584301900D4B1B689B0601D566
:400BC000182200E010220B4B1A600B4B18681223FF331840040001A8FFF70CFF2043F4D0FFF71CFF00E0042002B010BDD40100206400244068002440000F244010B582B0E8
:400C00000D4B1B789B0613D5FA239B00594301910A4B18600A4B18680823FF331840040001A8FFF7E7FE2043F4D0FFF7F7FE00E0042002B010BDC046D40100204002244045
:400C4000000F2440F0B583B004000D00164B1B789B0626D5FA239B005A430192134B18680223FF3318400700114B1B6804261E4001A8FFF7BFFE384333000343EED0002E69
:400C800005D00C4B1B682B700B4A094B1A60FFF7C5FE002806D1002C04D10422074B1A6000E0042003B0F0BDD4010020000F2440C00F244040032440ED0F000068002440AE
:400CC00010B5082000F08EF8044B1C88A4B200221A80082000F07CF8200010BDE4010020054B1B682022134000D0082301221343024A13607047C046640024406800244022
:400D000010B582B0154B1B789B0623D5FA239B005A4301924000FF240440002903D124220E4B1A7004E025220C4B1A7001231C43FFF7D6FF0A4B1C600A4B18680823FF331E
:400D40001840040001A8FFF755FE2043F4D0FFF765FE00E0042002B010BDC046D401002040022440000F244000230AE00D4A12683F210A400C49C95C8A4201D1033303E055
:400D800001332D2BF2D9032308490868084A02400A60084A944663441B78DBB2064A13607047C0462CFF0B40A82C000000002240FFFFFFBFCDF1FF0F28FF0B40034B186810
:400DC0008023DB05184000D001207047000022401F2318401E3B8340014A13607047C04600E100E01F2318401E3B8340014A13607047C04680E100E001BE704770B504000B
:400E00000D001F2802D90020FFF7F6FF1034A40080239B059C4664442068256070BDC04670B504000E00032902D90020FFF7E4FF1F2C02D90020FFF7DFFF03252540ED00B8
:400E4000063500F0AAF9A408A400074B9C46644421680323AB4099430B003100A9401943216000F09EF970BD00E400E010B5040006E0084B586800F087F9074B9C4664447A
:400E800080231B029C42F4D8024B9868604300F07BF910BDC80000200080FFFF70B582B000F0CAF800285DD000F077F9050000230AE02D4A12683F210A402C49C95C8A4270
:400EC00001D1033303E001332D2BF2D903230021274A1160274A1268D20606D1254802681F318A4313390A430260234C2168234A1140234A5A438023DB019C466244D20B5A
:400F0000013A5205520D0B001343A0225203134323601C4B1B680193302000F0F3FA1A4A13688021C9050B4313602668174B1E40002407E00120FFF799FF1034A30533434B
:400F40000D4A1360EE2CF5D90120FFF78FFFFF239B051E43084B1E60019A0A4B1A60280000F01FF902B070BD2CFF0B40A82C000028FF0B4034FF0B400800224000F800C051
:400F800040420F003000104000002240FFFF3FC030B587B0040000F000F90500FFF70EFF002803D0FFF7E0FE012100E00021104B1B6800930F4B1B680193033C0E4B1B5DCC
:400FC00002930E4B1B68039304AA0D4B04936B4605930C4B1A600C480C4A10601B68012901D1FFF75BFF280000F0DBF807B030BD08010B4000010B40A82C000030001040C7
:40100000B6EA000008001040170000800400104010B5034B1B7B584300F0B6F810BDC046C8000020034B1868C0231B02184000D00120704700010B40034B1B68002B01DA3F
:40104000012000E0002070470000224010B500F0A4F8044A1368C02109020B43136000F0A0F810BD00010B4010B500F096F808490A68084B1A408024E40122430A600A6851
:4010800013408022120213430B6000F08AF810BD00010B40FF3FFFFF70B5050000F07DF80400FFF7BFFF002803D0FFF7DDFF012100E0002108482840084A1568084B2B4023
:4010C000184310601368012901D1FFF7BFFF200000F067F870BDC0460404040010020B40FBFBFBFF10B5244B1B685B0715D5234B5B685B070ED5224B596A042001401F4C86
:4011000062688A4362605A6A82435A629B69002B00D098470420FFF7BFFF174B1B685B0518D5164B5B685B0510D5154B596A8022D2001140114842688A434260596A114A48
:401140000A405A62DB69002B00D098478020C000FFF7A2FF084B1B685B030CD5074B5B685B0304D5064B1B6A002B00D098478020C002FFF791FF10BD10020B40DC00002035
:4011800074010020FFFBFFFF0230800803D00138FDD1C046C046C0467047EFF3108072B6704780F310887047044B1B681F221340082BF9D0024B18607047C04608022640DE
:4011C0004002264010B5AF4B1B68002B00D09847AD4B1B68DB0702D50022AC4B1A60AC4B1B789B0628D5AB4B1B68DB0507D5AA4A1188C0239B000B431380012300E00023F4
:40120000A44A1268D20706D5A34A118890239B000B4313800123002B0FD09D4A1278D20701D5012200E002229B49088802430A800021974A117000E00023954A127892069E
:4012400000D417E1934A1268D20611D51022934B1A608F4B1B78DB0701D5012300E002238D4A11880B4313801022894B1A7007E1874A1278120720D5864A126892070AD5C1
:401280000222864B1A60844A118888239B000B431380012311E07E4A1278D20703D525217B4A117009E02421794A11707C4A1268002A02D014397B4A1160754A12785207BA
:4012C00000D4AEE0724A1278D20749D5764A1268120727D5754A1268754909681F240C40744909686418141B082C09D8002C16D1714A1168714B0B401360012308340EE00C
:4013000008240CE06B4A11686D48006841186D480068C0B20870116801311160013C002CF0D119E0604A1268520715D5614A116863480068411863480068C0B2087011683E
:40134000013111601168594A1268914203D204215D4A116000E001235C495D4A116060E04C4A1268920726D502224C4B1A6059490B681D321A40096880231B020B4000D06B
:4013800001239B18544A1168CB1A13601268534B1A60414A118884239B000B431380504B1A68802149020A431A6019684D4A0A401A60012335E04C4A1268D2061ED427E048
:4013C000454A1168364A126891421DD2344A1268013A414909688A4204D1402243490A6030490A603C4A11684148006841180978C9B240480160116801311160354A1268DC
:401400001F210A40082ADBD11021384A116008E0354A1268520604D52F4B1A682F4B1A600123002B2CD0244A1168244B0B4013600023314A13601B4A1360304B1B789B0726
:401440000ED5134B1B78DB0701D5092300E00A23114A11880B43138060220D4B1A700FE0274B1B689B0601D5182200E01022164B1A6005E0064B1B78DB0601D4FFF78CFAF1
:4014800010BDC046700100208C0E2440880E2440D40100200C0F2440E4010020000F2440E0010020880F2440CC0F2440F001002008032440F401002060002440FFFEFFFF55
:4014C000E80100204003244068002440ED0F0000C00F244008022440D8010020DC01002004022440FFFFFEFF8C0F2440800F2440F801002040022440C80F2440EC0100207F
:401500006400244070B50400FFF747FE0500102C05D8104A136803218B43136016E0202C07D80C490B6803229343023A13430B600CE0302C07D807490B6803229343013A26
:4015400013430B6002E00020FFF756FC2800FFF728FE70BD30001040002243088B4274D303098B425FD3030A8B4244D3030B8B4228D3030C8B420DD3FF22090212BA030C59
:401580008B4202D31212090265D0030B8B4219D300E0090AC30B8B4201D3CB03C01A5241830B8B4201D38B03C01A5241430B8B4201D34B03C01A5241030B8B4201D30B0330
:4015C000C01A5241C30A8B4201D3CB02C01A5241830A8B4201D38B02C01A5241430A8B4201D34B02C01A5241030A8B4201D30B02C01A5241CDD2C3098B4201D3CB01C01A2C
:40160000524183098B4201D38B01C01A524143098B4201D34B01C01A524103098B4201D30B01C01A5241C3088B4201D3CB00C01A524183088B4201D38B00C01A5241430812
:401640008B4201D34B00C01A5241411A00D20146524110467047FFE701B5002000F006F802BDC0460029F7D076E770477047C046F8B54A02430244004E00C50F240E2800CF
:401680009B09360EC90F92098D4259D0A01B002800DC8DE0002E1AD1002A00D079E05A0704D00F221A40042A00D004335A0138D50134FF2C00D189E028009B015B0AE4B289
:4016C0005B02E4055B0A2343C0071843F8BDFF2CE5D08021C9040A431B2800DD89E016002021C640081A8240511E8A4132439B1A5A0114D59B019E09300000F0E1FD053877
:401700008640844265DC041B330020200134E340041BA640721E964100243343BFE75A07BFD1DF082800FF2C2FD1002F00D187E08022D20313003B435B025B0AFF24BFE721
:40174000A11B002949DD002E29D0FF2CA7D08026F60432431B2900DD8DE017002026CF40711A8A40511E8A413A439B185A01D6D50134FF2C64D0012276491A405B080B4043
:4017800013438CE7031ECAD100207B025B0AE4B296E701380028AAD0FF2C9DD17FE7002A00D17CE701390029DFD0FF2CD2D176E7002820D1601CC0B2012853DD80279E1A5B
:4017C000FF0437402FD0D61A0D0095E72800002376E7614B241A334061E700294DD1611CCEB2012E2FDDFF292AD09B185B080C0055E701227BE7002C1BD1002B5BD0C043B5
:4018000000280CD0FF2E7ED01B2800DD92E01D002024C540201A8340581E83412B43D31A34000D0064E7002E00D065E700200024ABE7FF2E67D08024E40440422343E3E751
:40184000FF2400233CE7002C61D1002B7ED0002A00D124E79B185A0100D460E73E4A0C0013401CE7002C1ED1002B2FD1002A66D013000D0013E7012277E7002C1FD1002B87
:401880005AD0C94300290BD0FF2E50D01B295FDC1F002024CF40611A8B40591E8B413B439B18340062E7002B1CD1002A4AD013000D00FF24F3E6130034000D00EFE6FF2EAB
:4018C00035D08024E40449422343DFE7002A00D1E5E68027981AFF04074000D152E7D31A0D00DCE6FF24002A00D1D8E68020DB08C003034204D0D208024201D113000D0026
:40190000DB00FF24CBE61300FF240D00C7E6002B0DD0FF24002A00D1C1E68021DB08C9030B42EDD0D2080A42EAD11300E8E71300FF24B4E6012372E713003400AFE60027CE
:40194000002022E780270020FF03F1E61300A6E60123A5E7FFFFFF7DFFFFFFFBF0B5564644465F464D46F0B444024600C70F83B08846650A360EBA463DD0FF2E22D00023D1
:40198000EC00802599469B46ED0425437F3E43465C025800DB0F640A000E984636D0FF2830D080230021E400DB041C437F38301A0190484642460843724E800030587A40B5
:4019C00013008746002D44D108239946063B9B46DDE70122FF2000241A406402C305640AD2071C431443200003B03CBC90469946A246AB46F0BD002D20D104239946033B82
:401A00009B46C4E7002C17D1022102E0002C0AD10121321A01924A4643460A435A48920082587B409746200000F04AFC431F76309C4040420021BAE70321B8E7280000F094
:401A40003FFC431F9D4000237630464299469B469DE70C239946093B9B4698E780240022E403FF20B9E70024C2468B465A465346022AAED0032A7DD0012A31D1012200206F
:401A80001A400024A9E70122101A1B2856DD1A4000200024A1E78023DB031D424BD18023DB032B435C02640A3A00FF2095E76D016001854230D2019A0024013A01921B2241
:401AC0000127290064006D00002901DBA84201D82D1A3C43013A002AF3D16A1E95412C4301987F300028CEDD620704D00F222240042A00D00434220103D5244A01981440C9
:401B00008030FE2800DD64E70122A401640AC0B21A4062E72C00A9E72D1A1A220124CFE76B02BCD500248023DB031C436402640A4246FF2051E71C42B3D1F4E7210020226D
:401B4000C140101A8440621E94410C43620704D00F222240042A00D00434620104D5012201201A40002438E70122A401640A1A40002032E78023DB031C436402640A52469A
:401B8000FF202AE7D82C0000182D0000FFFFFFF770B5041E28D000F093FB9E231B1A962B0ADC9622D21A94406202520AD8B25202520AC005104370BD992B18DC9922D21A48
:401BC0009440114A2240610704D00F210C40042C00D00432510103D50B4B1A409F231B1A9201520AD8B2E2E700200022DFE705222500121AB921D5402200C91A8A40541EA3
:401C0000A2412C001443DCE7FFFFFFFBF0B55F4656464D464446F0B40D0399464E002B0B87B00700924680469B46760DCC0F002E69D06D4B9E4235D05B468022DD00120414
:401C4000430F13432B439B46C3009846674B00279C460023664401934A4615035000D20F53462D0B400D914600D176E05E4A90426CD080225B0F120413435C4AED00944620
:401C80001D4353460022DB00604449463618701C6140029017430F2F00D9AFE05448BF00C759BF465B461F4300D088E000239B469846023308270193CEE74946022A6AD0AF
:401CC000032A00D109E2012A00D0BBE111400022002300259046CCB200212D030A0D12052D0B1543434A1B0515401D436D00E4076D0825434046290007B03CBC904699469C
:401D0000A246AB46F0BD034352D05B46002B00D18AE1584600F0D4FA03000B3B1C2B00DD7BE11D22D31A3A0001005D46DA4008398D4013008F402B439B46B8462E4B002787
:401D40009C46002360444642019385E752462A432CD100250023022297E752462A4321D0002D00D154E1280000F0AAFA03000B3B1C2B00DD46E11D21CB1A51460200D940F8
:401D80005346083A954093400D431B4A944660444042002279E7012400220C40124B0025904699E70025002301226EE703226CE700239B4698460133042701934CE7032398
:401DC0000C27019348E700238025984600242D03054B81E75D464346019A6FE75D4643462100019A6AE7C046FF07000001FCFFFF582D0000FFFF0F80F30300004246120C30
:401E000091461A0C9446424617044A461B041B0C5A43604690464A4642431000039262461C003F0C7A437C4342440192220C9246019A5244904506D9824680204002804680
:401E4000C24450460390100C049048462404240C1204121905922A0C2D042D0C68432C00824648467C4350438146200C8046574357444744BA4503D9802040028046C144A5
:401E8000380C3F04B84648442404240C01900498A044404404905846000C814658460404200C8246070048465F434C464343604660436446834650464443380C8446E41853
:401EC0006444A34203D980235B029C46E34448463F04230C3F0C2404E419574668436F4384464D46504655434243380C814662444A445B44944503D980204002844665440E
:401F000003983F04834604983F0C8446E344C345804140428246100484460198674484466744A344BC46A345A4419946D44464428742BF41D4458041E144A04699459B41BD
:401F40007F424042C8440743120CBA18A045A4415F423B0064422343D71843467D19DB0D6D021D435B465A02059B1A43531E9A415B46DB0D1A4343465B021343EA0107D532
:401F800001225C0813402343EA07029E13436D08574AB218002A4BDD580709D00F201840042805D0181D98429B415B42ED180300E80104D54F4A15408022D200B2184E48F4
:401FC000824200DDE7E60124DB08680718436D02530580462D0B5B0D0C407DE6802259461203114208D0154206D115432D0398462D0B4C46414B6FE65D4615432D032D0BA2
:402000003E4B69E603005546283B9D400023BCE6504600F055F92030A8E60300283B9F400023BB46984689E600F04AF9203073E60124A61A382E07DD00220C4000230025FC
:40204000904649E6029EA3E71F2E20DC20222C001800921BF040944093400443581E83411C43F540630709D00F232340042B05D023001C1D9C4292415242AD182B021FD566
:40208000012400220C4001230025904624E61F202C004042821AD440202E1CD04022961BB5402B43581E83410720234318400025002809D00F2200251A401C00042AD8D12F
:4020C000230068076D022D0B0124DB08034398460C40002300E60025E3E780220124120315432D0398462D0B0C40044BF4E5C046FF030000FFFFFFFEFE070000FF0700003B
:402100004200120E511C4302C9B270B55D0AC40F012915DDE02189008C466D071B0B6244002128000D0D2D052B431C4D52052B40520813435B00E4075B082343190070BDC6
:40214000002A15D1002D1FD0280000F0B9F80A281DDC0B232A001B1ADA4013000200153295400F4A1B03121A52051B0B520DD7E7002D06D080221B0B120313436D07094A2D
:40218000CEE7084A0023CBE700220023C8E703000B3B9D402B000025E3E7C046FFFF0F8089030000FF0700004B0070B55E0D0C03751C640A420F6D052243C90FC4006D0DC3
:4021C000012D2ADD3B4BF318FE2B1ADC002B42DD8001451EA841D2001043620F0243500704D00F201040042800D004328020C004104021D00133FF2B03D09201520ADBB2DA
:4022000001E0FF2300225202520ADB0513435B00C9075B080B43180070BD002E07D01443EFD08020D20080040243FF23D7E722430023002A03D00522D208FF2B03D0520265
:40224000520ADBB2DFE7002A32D08020C00302435202520AD7E71800173014DB8020000402431E20C01A1F280FDC2500124BF3189D406E1EB5419A402B0013432200C24081
:402280001A430023ABE70023D5E702256D42EB1A1500DD40202809D0084BF3189A401443621E9441220000232A4398E70022F6E70022A8E780FCFFFF82FCFFFFA2FCFFFFA8
:4022C0001C2101231B04984201D3000C10391B0A984201D3000A08391B09984201D30009043902A2105C40187047C04604030202010101010000000000000000014B186825
:402300007047C046440100200E4B70B500251E000D4CE41AA410A54204D0AB00F35898470135F8E700F054FD084B00251E00084CE41AA410A54204D0AB00F3589847013567
:40234000F8E770BDDC2D0000DC2D0000DC2D0000E42D0000002310B59A4203D0CC5CC4540133F9E710BD03008218934202D019700133FAE7704700000EB410B59DB002A955
:40238000029008610B48822488604861012040421FABC881084804CBA400006801938C8100F06EF80023029A13701DB010BC08BC03B01847FFFFFF7F44010020F0B58E6893
:4023C00085B007000C00039201939E4243D890238A89DB001A423ED003250969236801985B1A029363695D43EB0F5D19029B6D1001331B18AB4200D91D00530510D52900F8
:40240000380000F037FB061E14D0029A2169FFF7A1FFA289194B134080221343A38112E02A00380000F086FB061E0CD12169380000F0D4FA0C23402201203B60A38940423F
:402440001343A38117E0029B2661F61826606561019EED1AA560019BB34200D21E0032000399206800F0A5FA0020A3689B1BA36023689E19266005B0F0BDC0467FFBFFFFD0
:40248000F0B59FB0029005938B890F0016001B0610D50B69002B0DD1402100F0EBFA38603861002804D10C23029A01381360D8E040237B61002306AD6B6120336B76103357
:4024C000AB7634002378002B03D1A31B049312D003E0252BF9D00134F4E7A31B320039000298FFF76BFF431C00D1B4E06A69049B944663446B612378002B00D1ABE00122BF
:40250000002352426A6002A95432521801342B60EB60AB601370AB65534E21780522300000F03CFA002807D00123801B83402A68013413432B60EFE72B68DA0604D553225F
:40254000202102A8121811701A0704D553222B2102A81218117022782A2A03D0099B00200A210EE0059A111D12680591002A01DB099204E05242EA60022213432B6001349D
:402580000BE02278303A092A04D84B4301349B180120F6E7002800D0099323782E2B1ED163782A2B0AD1059B02341A1D1B680592002B01DA01235B42079310E000230A2062
:4025C0001A0001346B6021783039092904D84243013452180123F6E7002B00D00792234E21780322300000F0D9F9002806D04023801B83402A68013413432B6021780622AF
:402600001B48661C297600F0C9F9002812D0194B002B06D10722059B073393430833059314E005AB00933A00134B2900029800E000BF07E005AB00933A000F4B2900029896
:4026400000F08AF80390039B013304D06B69039A9B186B6135E7BB890B985B0601D5012040421FB0F0BDC0469A2D0000A02D0000A42D000000000000BD230000F7B5170058
:4026800001938A680B6900900C00934200DA130022003B6043321278002A01D001333B6023689B0602D53B6802333B60062523681D401ED0230043331B785A1E93412268C3
:4026C00092061CD53020E1184331087021005A1C45310978A2184332023311700FE022000123193201990098089EB047431C0ED00135E3683A689B1A9D42F0DBDAE72200B8
:40270000019943320098089DA847431C02D10120404220E006232068E1683A6803400025042B03D18D1AEB43DB171D40A3682269934201DD9B1AED180027BD420AD0220039
:4027400001231A3201990098089EB047431CDED00137F2E70020FEBDF0B58BB006920A0043320793059004920A7E0C00109B6E2A00D1ABE011D8632A22D009D8002A00D1EE
:40278000B5E0582A00D0C5E045310A70814A4FE0642A1DD0692A1BD0BCE0732A00D1AAE009D86F2A29D0702A00D0B3E0202209680A43226037E0752A1FD0782A33D0A9E051
:4027C0000E001A684236111D196013683370A4E021681A68080606D4490604D5111D19600023D55E02E0111D19601568002D3BDA2D23049A6D42137036E021681A680806D9
:4028000006D4490604D51568111D1960ADB202E0111D196015685F4B227E039308276F2A1DD00A271BE022007821453211705A4A19680392081D226818600D68100602D457
:40284000500600D5ADB2D30702D520231A4322601027002D03D1202322689A4322602300002243331A7002E00A274A4B03936368A360002B09DB0422216891432160002D06
:4028800005D1049E002B11D07BE0002D79D0049E28003900FEF7E6FE039B013E5B5C280033703900FEF758FE051EF1D1082F09D12368DB0706D563682269934202DC30236A
:4028C000013E3370049B9B1B23612BE009681A68080607D4490605D5111D19601368A28A1A8004E0111D1960136862691A600023049E236116E01A68111D196016680021D3
:402900006268300000F04AF8002801D0801B6060636803E0260042363270012323610023049A1370079B09AA00932100069B0598FFF7A4FE431C02D10120404227E02369F6
:40294000320006990598079DA847431CF4D0236800259B070FD4099BE068984217DA180015E022000123193206990598079EB047431CE1D00135E368099A9B1A9D42F0DB3E
:40298000E9E72600039B42361B7833708EE70BB0F0BDC046AB2D0000BC2D0000C9B28218904204D003788B4202D00130F8E70020704710B5884202D98B18984201D3002397
:4029C00005E09B1A013A08D3995C8154FAE7934203D0CC5CC4540133F9E710BD70B50500002944D00C1F2368002B00DAE418280000F0D8F81E4A13681100002B02D16360F8
:402A0000146031E0A3420DD92268A018834203D118685B688218226063600C6024E0A24203D813005A68002AF9D11E689819A0420BD12168711858181960824214D1106840
:402A40005268411819605A600EE0A04202D90C232B6009E021686018824203D1106852684118216062605C60280000F09CF870BDA0010020032370B5CD1C9D4308350600AE
:402A80000C2D01D20C2501E0002D01DBA94202D90C23336048E0300000F084F8234B1C681A002100002913D00B685B1B0DD40B2B02D90B60CC181EE08C4202D16368136063
:402AC0001AE04B6863600C0016E00C004968E9E7174C2368002B03D1300000F051F820602900300000F04CF8431C18D00323C41C9C43A0420DD12560300000F054F8200077
:402B000007220B30231D9043C31A0ED05A42E2500BE0211A300000F033F8431CEBD10C233000336000F03FF8002070BDA00100209C010020F8B506000C001500002904D153
:402B40001100FFF797FF040018E0002A03D1FFF745FF2C0012E000F027F885420ED929003000FFF787FF071E07D021002A00FFF7F1FB21003000FFF731FF3C002000F8BD23
:402B8000002370B5064C050008002360FDF78AFD431C03D12368002B00D02B6070BDC046FC010020704770470B1F1A68101F002A04DA891804390B68D0180438704700005F
:402BC00000000000496E697469616C697A696E67204F787967656E2053656E736F722E2E2E0D0A004932432064657669636520636F6E6E656374696F6E206661696C6564F2
:402C0000210D0A0049324320636F6E6E656374696F6E207375636365737366756C210D0A000000004F787967656E20636F6E63656E74726174696F6E3A20252E326620251B
:402C400025766F6C0D0A000000300F40000400400F40000438223E1158045F011C401D2089208C402E046A04CA80DA400A404240C210D04070017410DC0388108C019402FD
:402C8000A410E002E40102011101000004320F4004330F4004400F4004410F4003420F4006430F4002600F40030405060708090A0B0C0E0F101112131415161718191B1C09
:402CC0001D1E1F2021222325262728292A2B2E2F3031323334350000AE1A0000D2190000901A0000681A0000901A00005C1A0000901A0000681A0000D2190000D21900004F
:402D00005C1A0000681A0000141B0000141B0000141B0000961A0000D2190000D21900007C1A0000661A00007C1A00005C1A00007C1A0000661A0000D2190000D21900007A
:402D40005C1A0000661A0000141B0000141B0000141B0000201B0000FC1D0000BC1C0000BC1C0000BA1C0000D41D0000D41D0000C61D0000BA1C0000D41D0000C61D000087
:402D8000D41D0000BA1C0000DC1D0000DC1D0000DC1D0000DC1F00004300232D302B2000686C4C0065666745464700303132333435363738394142434445460030313233CC
:402DC00034353637383961626364656600000000F8B5C046F8BC08BC9E4670476D0300001D070000F8B5C046F8BC08BC9E46704745030000082E0000C00000208800000031
:402E0000B8000000000000000000000000020020010000000000C05D80BB000030000000006CDC02F0000000040404000000000000000000000000000000000000000000E9
:402E4000000000000000000000000000982D00000000000000000000000000000000000000000000000000000000000000000000000000000000000000000000000000008D
:402E8000000000000000000000000000E40000200000000000000000000000000000000000000000000000000000000000000000000000000000000000000000000000000E
:402EC00000000000000000000000000000000000000000000000000000000000000000000000000000000000000000000000000000000000000000000000000000000000D2
:402F00000000000000000000000000000000000000000000000000000000000000000000000000000000000000000000000000000000000000000000000000000000000091
:402F40000000000000000000000000000000000000000000000000000000000000000000000000000000000000000000000000000000000000000000000000000000000051
:402F80000000000000000000000000000000000000000000000000000000000000000000000000000000000000000000000000000000000000000000000000000000000011
:020000040001F9
:0200000490303A
:0200000022508C
:0200000490402A
:4000000000000000000000000000000000000000000000000000000000000000000000000000000000000000000000000000000000000000000000000000000000000000C0
:400040000000000000000000000000000000000000000000000000000000000000000000000000000000000000000000000000000000000000000000000000000000000080
:0200000490501A
:0C0000000002112D11A10001113B33F191
:0200000490600A
:0100000001FE
:00000001FF