:400000000040002011000000C9040000C904000010B500F079FAC04610B512222E4B1A60302000F0A9FD2D4A2D4B1A60BC2292012C4B1A602C4B2D4919602D490A602D4A2D
:400040001A60FE2212022C490A602C4919602C490A602C4A1A60882189012B4A11602B4A1A60802189002A4A11602A4A1A60E8214901294A1160294A1A6082221206284BDE
:400080001A608022D202274B1A604523264A1360264A1360264A1360264A13604622264B1A60063A254B1A600132254B1A600332244B1A60023A244B1A600132234B1A6078
:4000C0002349072000F08EFC072000F07FFC0022204B1A6010BDC046300010400600008004010B40140301400000014045FF00801803014046FF00800003014040FF0080B0
:400100000403014041FF00801003014044FF00800803014042FF00800C03014043FF008008010B4000010B403801014034010140300101402C010140280101401C01014049
:4001400018010140140101400C01014008010140CD0C00000C020B4010B572B601224A4B1A7000240FE049486200131959000B00411889881A5AC31858880004104300F060
:400180004FF90134E4B2012CEDD9404801000C31443000F02BF93E4A3E4B1A608E2212013D4B1A60802212033C4B1A603C4A3D4B1A600E223C4B1A608B323C4B1A609923B0
:4001C0001B043B4A13603B493B4A1160802189043A4A11603A4A13603A4A13603A4A3B4B1A6001213A4B19603A4803783C22934314221343DBB20370374A10781623034374
:40020000DBB213702F23354A13603548354A1060354A13602722354B1A60354A354B1A608022354B1A605F3A344B1A60B032344B1A60344A344B1A600822344B1A60B932C2
:40024000334B1A60B03A334B1A60334A334B1A600223334A13604520324A10604138324A10604030314A1060314A1160314A1160314A13603031314A1160314A1360FFF712
:40028000CBFE00F0E3F810BD1C700F40E81700000000FFFF00000240000102400002024000EE080000030240000402400007024000500F400400990010500F4014500F40D4
:4002C00020500F4030500F4010CC0C00600120402000104001700F4000700F400000044000102700080004401800044000010440A013D800080104400C01044018010440EA
:400300000002044008600000080204400C0204401802044000030440826D0000080304400C03044000040440080404401804044000060440180604400007044008070440F7
:400340001807044010B5064C2378002B07D1054B002B02D0044800E000BF0123237010BD4801002000000000DC170000084B10B5002B03D00749084800E000BF074803683E
:40038000002B00D110BD064B002BFBD09847F9E7000000004C010020DC170000C00000200000000010B562B600F05AFA00F0E2F900F0F0F90B4800F0C9FA022000F0F4F964
:4003C00000280BD0002000F015FA0200054C0649200000F0DFFD200000F0B8FA642000F039FBE7E79C010020E0170000F0B50025002711E0BB00C658F3B2FF22964308E01F
:400400006A008A181478A419527822700135013BDBB2002BF4D10137062FEBD9F0BDC04610B50A00002100F0ACFD10BD064B1B68002803D080221206134301E05B005B0864
:40044000014A13607047C04680033A4010B580231B060F4A136003220E490A600E480F4908600F480F4908600C200F4908600F490A600F4A13600F4A0F4B1A600F4A104B41
:400480001A6000220F4B1A600B38FFF7CFFF10BD000030403000304004400400800030400240040088003040C00030403000314000003A404180430000033A40C1004300A2
:4004C00040033A40000E3F4010B500F025FD03680C2B00D1FEE7FEE710B50300084A1068C318084A9A1A802A02DC054A136005E000F012FD0C2303600120404210BDC046F5
:40050000C4000020D001002070B50F4E0F4D13E029686B68AC68002202E001C901C30432A242FAD1E868002202E0002102C304328242FAD11035013E002EE9D100F0F2FCDD
:40054000FFF730FFFEE7C04601000000EC18000010B50E4A136801218B43136000230AE0032B03D89A000A49505800E009489900094A885001332F2BF2D9FFF7EDFD034A45
:40058000116801230B43136010BDC0460000104000000000C90400000000002010B50321102000F031FA4D49102000F01BFA0F224B4B1A604B4B1B68002B01DA4A4900E0FB
:4005C0004A494B4A13680B4313604A4A4A4B1A604A4A4B4B1A6000234A4A13604A494B4A11604B494B4A11604B4A13604B4A136011224B4B1A604B490A684B4B134001228E
:4006000013430B60002265E0484993005858DC239B0103408918097D0B43032A1CD89100434CA44661440B60C30707D53A480168012393401B041B0C0B43036093003B499A
:400640005B589B0721D535480168012393401B041B0C0B43036018E08021C9050B4335490B60930031495B58DB0704D52C490868202303430B6093002C495B589B0704D533
:4006800027490868402303430B609300274959588B0502D58020400001E080204001CB0504D45300002424495C5203E05300002421495C52214B43438021C9008C46634408
:4006C000D9174905490DCB18DB121BB290001C4943500132042A97D910BDC0462D08000020003A4080033A40402E1013402E001300003A40A800008004003A400000FF0799
:4007000018003A401C003A40E903040010003A400400040014003A4028023A4038023A4018023A4030003A40FFFFFFDF4818000080003A4080023A40C001002010270000A1
:40074000AC01002010B5094B1B68002B0CDB084B1B68002BFBDB054A1368802109060B4313600A2000F048FA10BDC04600003A4008023A4010B5064B1B78002B04D1FFF720
:400780000DFF0122024B1A70FFF7DCFF10BDC04664010020034A1368802149020B4313607047C04604003A40010083070CD0104B1B680120184001D18B07F8D4002804D070
:4007C00001220B4B1A6000E000200C230B420DD0074B1A6810231A401043034001D10A07F6D4002B02D01022014B1A607047C04610023A4010B50400042802D9002000F0EB
:40080000EFF8032C07D8A400064B9C46644420680004000C03E0044B18680004000C00B210BDC04680013A4090023A40014B1A681A60704710023A4010B500F075F810BDE4
:4008400010B500F01DF810BD10B5044A1368802109060B431360FFF7EFFF10BD0000274010B5064B1B78002B04D1FFF7E9FF0122024B1A70FFF7E8FF10BDC0466601002012
:40088000154A164B1A600023154A13601549164A1160164A16490A6007201649086016490B6006381549086015490A60154A13600421154A1160154A1360154A1360154A63
:4008C0001360154A1360154A1360154A13601268144B1A807047C0460B000002000027404000274001000A0048002740070000800003274004032740100327404400274086
:40090000000227400402274050002740880E2740C80E2740480F2740080F2740C80F2740880F27406801002005490B68F0229343603A13430B60034B1A88034B1A6070477C
:400940000007024068010020880F274070B50500002402E000F01CFA0134285D0028F9D170BDC04600230AE00D4A12683F210A400C49C95C8A4201D1033303E001332D2B4D
:40098000F2D9032308490868084A02400A60084A944663441B78DBB2064A13607047C0462CFF0B406418000000002240FFFFFFBFCDF1FF0F28FF0B40034B18688023DB0575
:4009C000184000D001207047000022401F2318401E3B8340014A13607047C04600E100E001BE704770B504000D001F2802D90020FFF7F6FF1034A40080239B059C46644415
:400A00002068256070BDC04670B504000E00032902D90020FFF7E4FF1F2C02D90020FFF7DFFF03252540ED00063500F0AAF9A408A400074B9C46644421680323AB4099433B
:400A40000B003100A9401943216000F09EF970BD00E400E010B5040006E0084B586800F087F9074B9C46644480231B029C42F4D8024B9868604300F07BF910BDC80000207B
:400A80000080FFFF70B582B000F0CAF800285DD000F077F9050000230AE02D4A12683F210A402C49C95C8A4201D1033303E001332D2BF2D903230021274A1160274A126891
:400AC000D20606D1254802681F318A4313390A430260234C2168234A1140234A5A438023DB019C466244D20B013A5205520D0B001343A0225203134323601C4B1B680193F4
:400B0000302000F053F91A4A13688021C9050B4313602668174B1E40002407E00120FFF799FF1034A30533430D4A1360EE2CF5D90120FFF78FFFFF239B051E43084B1E6065
:400B4000019A0A4B1A60280000F01FF902B070BD2CFF0B406418000028FF0B4034FF0B400800224000F800C040420F003000104000002240FFFF3FC030B587B0040000F078
:400B800000F90500FFF718FF002803D0FFF7EAFE012100E00021104B1B6800930F4B1B680193033C0E4B1B5D02930E4B1B68039304AA0D4B04936B4605930C4B1A600C482A
:400BC0000C4A10601B68012901D1FFF75BFF280000F0DBF807B030BD08010B4000010B406418000030001040B6EA000008001040170000800400104010B5034B1B7B58430E
:400C000000F0B6F810BDC046C8000020034B1868C0231B02184000D00120704700010B40034B1B68002B01DA012000E0002070470000224010B500F0A4F8044A1368C02135
:400C400009020B43136000F0A0F810BD00010B4010B500F096F808490A68084B1A408024E40122430A600A6813408022120213430B6000F08AF810BD00010B40FF3FFFFFF9
:400C800070B5050000F07DF80400FFF7BFFF002803D0FFF7DDFF012100E0002108482840084A1568084B2B40184310601368012901D1FFF7BFFF200000F067F870BDC04620
:400CC0000404040010020B40FBFBFBFF10B5244B1B685B0715D5234B5B685B070ED5224B596A042001401F4C62688A4362605A6A82435A629B69002B00D098470420FFF78C
:400D0000BFFF174B1B685B0518D5164B5B685B0510D5154B596A8022D2001140114842688A434260596A114A0A405A62DB69002B00D098478020C000FFF7A2FF084B1B68F1
:400D40005B030CD5074B5B685B0304D5064B1B6A002B00D098478020C002FFF791FF10BD10020B40DC0000206C010020FFFBFFFF0230800803D00138FDD1C046C046C046FF
:400D80007047EFF3108072B6704780F310887047044B1B681F221340082BF9D0024B18607047C046080227404002274070B50400FFF7E7FF0500102C05D8104A136803214F
:400DC0008B43136016E0202C07D80C490B6803229343023A13430B600CE0302C07D807490B6803229343013A13430B6002E00020FFF7F6FD2800FFF7C8FF70BD3000104073
:400E0000002243088B4274D303098B425FD3030A8B4244D3030B8B4228D3030C8B420DD3FF22090212BA030C8B4202D31212090265D0030B8B4219D300E0090AC30B8B4241
:400E400001D3CB03C01A5241830B8B4201D38B03C01A5241430B8B4201D34B03C01A5241030B8B4201D30B03C01A5241C30A8B4201D3CB02C01A5241830A8B4201D38B0202
:400E8000C01A5241430A8B4201D34B02C01A5241030A8B4201D30B02C01A5241CDD2C3098B4201D3CB01C01A524183098B4201D38B01C01A524143098B4201D34B01C01A77
:400EC000524103098B4201D30B01C01A5241C3088B4201D3CB00C01A524183088B4201D38B00C01A524143088B4201D34B00C01A5241411A00D20146524110467047FFE7D3
:400F000001B5002000F006F802BDC0460029F7D076E770477047C046014B18687047C046440100200E4B70B500251E000D4CE41AA410A54204D0AB00F35898470135F8E708
:400F400000F0C2FC084B00251E00084CE41AA410A54204D0AB00F35898470135F8E770BDD4180000D4180000D4180000DC180000002310B59A4203D0CC5CC4540133F9E7B2
:400F800010BD03008218934202D019700133FAE7704700000EB410B59DB002A9029008610B48822488604861012040421FABC881084804CBA400006801938C8100F06EF8EF
:400FC0000023029A13701DB010BC08BC03B01847FFFFFF7F44010020F0B58E6885B007000C00039201939E4243D890238A89DB001A423ED003250969236801985B1A029385
:4010000063695D43EB0F5D19029B6D1001331B18AB4200D91D00530510D52900380000F037FB061E14D0029A2169FFF7A1FFA289194B134080221343A38112E02A0038009A
:4010400000F086FB061E0CD12169380000F0D4FA0C23402201203B60A38940421343A38117E0029B2661F61826606561019EED1AA560019BB34200D21E0032000399206812
:4010800000F0A5FA0020A3689B1BA36023689E19266005B0F0BDC0467FFBFFFFF0B59FB0029005938B890F0016001B0610D50B69002B0DD1402100F0EBFA386038610028AC
:4010C00004D10C23029A01381360D8E040237B61002306AD6B6120336B761033AB7634002378002B03D1A31B049312D003E0252BF9D00134F4E7A31B320039000298FFF7A9
:401100006BFF431C00D1B4E06A69049B944663446B612378002B00D1ABE00122002352426A6002A95432521801342B60EB60AB601370AB65534E21780522300000F03CFA01
:40114000002807D00123801B83402A68013413432B60EFE72B68DA0604D55322202102A8121811701A0704D553222B2102A81218117022782A2A03D0099B00200A210EE06B
:40118000059A111D12680591002A01DB099204E05242EA60022213432B6001340BE02278303A092A04D84B4301349B180120F6E7002800D0099323782E2B1ED163782A2B9C
:4011C0000AD1059B02341A1D1B680592002B01DA01235B42079310E000230A201A0001346B6021783039092904D84243013452180123F6E7002B00D00792234E217803223D
:40120000300000F0D9F9002806D04023801B83402A68013413432B60217806221B48661C297600F0C9F9002812D0194B002B06D10722059B073393430833059314E005AB9E
:4012400000933A00134B2900029800E000BF07E005AB00933A000F4B2900029800F08AF80390039B013304D06B69039A9B186B6135E7BB890B985B0601D5012040421FB019
:40128000F0BDC046941800009A1800009E18000000000000D90F0000F7B5170001938A680B6900900C00934200DA130022003B6043321278002A01D001333B6023689B06B2
:4012C00002D53B6802333B60062523681D401ED0230043331B785A1E9341226892061CD53020E1184331087021005A1C45310978A2184332023311700FE0220001231932F0
:4013000001990098089EB047431C0ED00135E3683A689B1A9D42F0DBDAE72200019943320098089DA847431C02D10120404220E006232068E1683A6803400025042B03D125
:401340008D1AEB43DB171D40A3682269934201DD9B1AED180027BD420AD0220001231A3201990098089EB047431CDED00137F2E70020FEBDF0B58BB006920A00433207935B
:40138000059004920A7E0C00109B6E2A00D1ABE011D8632A22D009D8002A00D1B5E0582A00D0C5E045310A70814A4FE0642A1DD0692A1BD0BCE0732A00D1AAE009D86F2A0E
:4013C00029D0702A00D0B3E0202209680A43226037E0752A1FD0782A33D0A9E00E001A684236111D196013683370A4E021681A68080606D4490604D5111D19600023D55E39
:4014000002E0111D19601568002D3BDA2D23049A6D42137036E021681A68080606D4490604D51568111D1960ADB202E0111D196015685F4B227E039308276F2A1DD00A27C4
:401440001BE022007821453211705A4A19680392081D226818600D68100602D4500600D5ADB2D30702D520231A4322601027002D03D1202322689A43226023000022433300
:401480001A7002E00A274A4B03936368A360002B09DB0422216891432160002D05D1049E002B11D07BE0002D79D0049E28003900FFF72CFD039B013E5B5C28003370390047
:4014C000FFF79EFC051EF1D1082F09D12368DB0706D563682269934202DC3023013E3370049B9B1B23612BE009681A68080607D4490605D5111D19601368A28A1A8004E02B
:40150000111D1960136862691A600023049E236116E01A68111D1960166800216268300000F04AF8002801D0801B6060636803E0260042363270012323610023049A1370E3
:40154000079B09AA00932100069B0598FFF7A4FE431C02D10120404227E02369320006990598079DA847431CF4D0236800259B070FD4099BE068984217DA180015E02200E5
:401580000123193206990598079EB047431CE1D00135E368099A9B1A9D42F0DBE9E72600039B42361B7833708EE70BB0F0BDC046A5180000B6180000C9B28218904204D0E6
:4015C00003788B4202D00130F8E70020704710B5884202D98B18984201D3002305E09B1A013A08D3995C8154FAE7934203D0CC5CC4540133F9E710BD70B50500002944D081
:401600000C1F2368002B00DAE418280000F0D8F81E4A13681100002B02D16360146031E0A3420DD92268A018834203D118685B688218226063600C6024E0A24203D81300C7
:401640005A68002AF9D11E689819A0420BD12168711858181960824214D110685268411819605A600EE0A04202D90C232B6009E021686018824203D110685268411821606A
:4016800062605C60280000F09CF870BD98010020032370B5CD1C9D43083506000C2D01D20C2501E0002D01DBA94202D90C23336048E0300000F084F8234B1C681A00210023
:4016C000002913D00B685B1B0DD40B2B02D90B60CC181EE08C4202D1636813601AE04B6863600C0016E00C004968E9E7174C2368002B03D1300000F051F8206029003000A9
:4017000000F04CF8431C18D00323C41C9C43A0420DD12560300000F054F8200007220B30231D9043C31A0ED05A42E2500BE0211A300000F033F8431CEBD10C2330003360FA
:4017400000F03FF8002070BD9801002094010020F8B506000C001500002904D11100FFF797FF040018E0002A03D1FFF745FF2C0012E000F027F885420ED929003000FFF7BA
:4017800087FF071E07D021002A00FFF7F1FB21003000FFF731FF3C002000F8BD002370B5064C050008002360FEF796FE431C03D12368002B00D02B6070BDC046CC010020DB
:4017C000704770470B1F1A68101F002A04DA891804390B68D0180438704700000000000025640D0A0000000000300F40000400400F40000438223E1158045F011C401D20B8
:4018000089208C402E046A04CA80DA400A404240C210D04070017410DC0388108C019402A410E002E40102011101000004320F4004330F4004400F4004410F4003420F409C
:4018400006430F4002600F4000040000000500000014000000140000000000000006131270000000030405060708090A0B0C0E0F101112131415161718191B1C1D1E1F206D
:4018800021222325262728292A2B2E2F3031323334354300232D302B2000686C4C00656667454647003031323334353637383941424344454600303132333435363738393D
:4018C0006162636465660000F8B5C046F8BC08BC9E4670476D03000051050000F8B5C046F8BC08BC9E4670474503000000190000C0000020880000008800000000000000F0
:4019000000000000D0010020010000000000C05D80BB000030000000006CDC02F00000000404040000000000000000000000000000000000000000000000000000000000E7
:4019400000000000921800000000000000000000000000000000000000000000000000000000000000000000000000000000000000000000000000000000000000000000BD
:4019800000000000E4000020000000000000000000000000000000000000000000000000000000000000000000000000000000000000000000000000000000000000000023
:4019C00000000000000000000000000000000000000000000000000000000000000000000000000000000000000000000000000000000000000000000000000000000000E7
:401A000000000000000000000000000000000000000000000000000000000000000000000000000000000000000000000000000000000000000000000000000000000000A6
:401A40000000000000000000000000000000000000000000000000000000000000000000000000000000000000000000000000000000000000000000000000000000000066
:401A80000000000000000000000000000000000000000000000000000000000000000000000000000000000000000000000000000000000000000000000000000000000026
:020000040001F9
:0200000490303A
:02000000767513
:0200000490402A
:4000000000000000000000000000000000000000000000000000000000000000000000000000000000000000000000000000000000000000000000000000000000000000C0
:400040000000000000000000000000000000000000000000000000000000000000000000000000000000000000000000000000000000000000000000000000000000000080
:0200000490501A
:0C0000000002112D11A10001113488161E
:0200000490600A
:0100000001FE
:00000001FF